:100000000C94E7000C940F010C940F010C940F0159
:100010000C940F010C940F010C940F010C940F0120
:100020000C940F010C940F010C940F010C940F0110
:100030000C940F010C940F010C940F010C940F0100
:100040000C94A7120C940F010C9417130C94F1123A
:100050000C940F010C940F010C940F010C940F01E0
:100060000C940F010C940F0100407A10F35A00A079
:10007000724E18090010A5D4E80000E87648170071
:1000800000E40B54020000CA9A3B000000E1F505B1
:10009000000080969800000040420F000000A086FB
:1000A00001000000102700000000E803000000002D
:1000B0006400000000000A000000000001000000D1
:1000C00000002C76D888DC674F0823DFC1DFAE59EB
:1000D000E1B1B796E5E3E453C63AE651997696E87E
:1000E000E6C28426EB898C9B62ED407C6FFCEFBC02
:1000F0009C9F40F2BAA56FA5F490055A2AF75C932D
:100100006B6CF9676DC11BFCE0E40D47FEF520E662
:10011000B500D0ED902E0300943577050080841E45
:10012000080000204E0A000000C80C333333330FA0
:10013000986E12831141EF8D2114893BE65516CF3D
:10014000FEE6DB18D1844B381BF77C1D901DA4BB49
:10015000E424203284725E228100C9F124ECA1E5FE
:100160003D277C3C3E5E2B3D3F2F5B5D3B2C2A2296
:100170005C0000000000240027002A0000000000AE
:10018000250028002B000000000023002600290085
:10019000040404040404040402020202020203032D
:1001A0000303030301020408102040800102040835
:1001B00010200102040810200000000800020100C5
:1001C0000003040700000000000000004913112490
:1001D0001FBECFEFD8E0DEBFCDBF24E0A8EDB1E079
:1001E00001C01D92AF3FB207E1F711E0A0E0B1E01E
:1001F000E2EAFFE302C005900D92A83DB107D9F7EE
:1002000010E0C7EED0E004C02197FE010E94BB1DA4
:10021000C63ED107C9F70E94B2130C94CF1F0C94AD
:100220000000833081F028F4813099F08230A9F009
:1002300008958730A9F08830C9F08430B1F48091F6
:1002400080008F7D03C0809180008F778093800035
:10025000089584B58F7784BD089584B58F7DFBCFD5
:100260008091B0008F778093B00008958091B000A6
:100270008F7DF9CFCF93DF93282F30E0F901E85439
:10028000FE4F8491F901EC55FE4FD491F901E057EE
:10029000FE4FC491CC23A1F081110E941101EC2FDB
:1002A000F0E0EE0FFF1FEA57FE4FA591B491EC91DD
:1002B000ED2381E090E009F480E0DF91CF91089593
:1002C00080E090E0FACF1F93CF93DF93282F30E0A8
:1002D000F901E854FE4F8491F901EC55FE4FD49199
:1002E000F901E057FE4FC491CC23A9F0162F8111DC
:1002F0000E941101EC2FF0E0EE0FFF1FE458FE4FBB
:10030000A591B4918FB7F894EC91111108C0D095D4
:10031000DE23DC938FBFDF91CF911F910895DE2BF9
:10032000F8CFCF93DF9390E0FC01EC55FE4F249182
:1003300080579E4FFC0184918823D1F090E0880F74
:10034000991FFC01EE58FE4FA591B491FC01E458B1
:10035000FE4FC591D49161110EC09FB7F8948C9156
:10036000E22FE0958E238C932881E223E8839FBFC0
:10037000DF91CF9108958FB7F894EC91E22BEC9335
:100380008FBFF6CF3FB7F8948091E5019091E601D9
:10039000A091E701B091E80126B5A89B05C02F3FC9
:1003A00019F00196A11DB11D3FBFBA2FA92F982F9B
:1003B0008827BC01CD01620F711D811D911D42E096
:1003C000660F771F881F991F4A95D1F708958F925E
:1003D0009F92AF92BF92CF92DF92EF92FF926B010A
:1003E0007C010E94C2014B015C01C114D104E104F3
:1003F000F104B9F00E94C201681979098A099B09C0
:10040000683E73408105910580F321E0C21AD1084E
:10041000E108F10888EE880E83E0981EA11CB11C4B
:10042000E4CFFF90EF90DF90CF90BF90AF909F9080
:100430008F9008952FB7F8946091E1017091E201D7
:100440008091E3019091E4012FBF0895AF92BF9294
:10045000CF92DF92EF92FF920F931F93CF93DF9390
:100460006C017B018B01040F151FEB015E01AE18BF
:10047000BF08C017D10759F06991D601ED91FC91E1
:100480000190F081E02DC6010995892B79F7C5010E
:10049000DF91CF911F910F91FF90EF90DF90CF9060
:1004A000BF90AF900895FC01538D448D252F30E00F
:1004B000842F90E0821B930B541710F0CF96089571
:1004C00001970895FC01918D828D981761F0A28D9E
:1004D000AE0FBF2FB11D5D968C91928D9F5F9F7364
:1004E000928F90E008958FEF9FEF0895FC01918D1A
:1004F000828D981731F0828DE80FF11D858D90E087
:1005000008958FEF9FEF0895FC01918D228D892F23
:1005100090E0805C9F4F821B91098F73992708950B
:100520008BEE93E00E94840221E0892B09F420E005
:10053000822F089580E090E0892B29F00E9490029C
:1005400081110C9400000895FC01A48DA80FB92F0F
:10055000B11DA35ABF4F2C91848D90E001968F73EB
:100560009927848FA689B7892C93A089B1898C910A
:10057000837080648C93938D848D981306C0028859
:10058000F389E02D80818F7D80830895EF92FF9223
:100590000F931F93CF93DF93EC0181E0888F9B8DA6
:1005A0008C8D98131AC0E889F989808185FF15C060
:1005B0009FB7F894EE89FF896083E889F989808183
:1005C0008370806480839FBF81E090E0DF91CF9152
:1005D0001F910F91FF90EF900895F62E0B8D10E074
:1005E0000F5F1F4F0F731127E02E8C8D8E110CC0E3
:1005F0000FB607FCFACFE889F989808185FFF5CF2E
:10060000CE010E94A402F1CFEB8DEC0FFD2FF11D66
:10061000E35AFF4FF0829FB7F8940B8FEA89FB896A
:1006200080818062CFCFCF93DF93EC01888D8823C8
:10063000B9F0AA89BB89E889F9898C9185FD03C045
:10064000808186FD0DC00FB607FCF7CF8C9185FF2A
:10065000F2CF808185FFEDCFCE010E94A402E9CFC9
:10066000DF91CF9108958FB7F8948091D9018FBF12
:10067000089561E0FC0184810E9463018091D801AA
:1006800081111092D80108958EBD00000DB407FEAF
:10069000FDCF8EB508958FEF0C9444030F931F93F5
:1006A000CF93DF93EC010E941A028B010E944B034F
:1006B0008F3F69F00E941A02601B710B6C177D0757
:1006C000A8F380E0DF91CF911F910F91089581E011
:1006D000F9CF8CBD9DBD0895CF93DF93EC01809140
:1006E000D801811109C081E08093D80180918804EC
:1006F000909189040E94690360E08C81DF91CF9121
:100700000C9463018F929F92AF92BF92FF920F93CE
:100710001F93CF93DF93EC01F62E49015A018E818E
:10072000882389F08F8198859C012F5F3F4F388700
:100730002F838230924018F40E944B03F3CFCE01F6
:100740000E9439031E82CE010E946C038CE291E06C
:100750000E944E038F2D80640E94440308E110E044
:10076000D501C401002E04C0B695A795979587952D
:100770000A94D2F70E94440308501109083F8FEFF2
:10078000180771F785E9FF2021F028E087E8F212C9
:100790008FEF0E94440310E00E944B038A8787FF7B
:1007A00004C01F3F11F01F5FF7CFDF91CF911F9162
:1007B0000F91FF90BF90AF909F908F900895AF9250
:1007C000BF92CF92DF92EF92FF920F931F93CF933E
:1007D000DF93EC016901C801820F931F81309240C1
:1007E00050F58E81882379F088819981AA81BB8117
:1007F00084179507A607B70731F48F819885C81627
:10080000D90608F042C0488359836A837B838B856D
:10081000833039F089E0440F551F661F771F8A9592
:10082000D1F79A01AB0161E1CE010E9482038823D6
:1008300089F083E08D83CE010E94390380E0DF914F
:10084000CF911F910F91FF90EF90DF90CF90BF90CD
:10085000AF9008950E941A025B010E944B038A87A1
:100860008F3F69F40E941A026A197B096D32714048
:10087000A0F38FE08D83CE010E943903DCCF8E3F41
:1008800089F418861F8281E08E838F8198858C156C
:100890009D0550F40E944B038F819885019698879F
:1008A0008F83F3CF8DE0E6CF6701E00EF11E0E944B
:1008B0004B03F60181936F01EE15FF05C1F78F81A0
:1008C0009885080F191F18870F838985882319F0C9
:1008D00001151240A0F08E81882389F08F819885C0
:1008E0009C012F5F3F4F38872F838230924018F44E
:1008F0000E944B03F3CFCE010E9439031E8281E098
:100900009ECFCF92DF92EF92FF920F93CF93DF9320
:10091000EC01690182E1411551056105710599F00C
:100920008B85833039F089E0440F551F661F771F90
:100930008A95D1F79A01AB0168E1CE010E9482034A
:10094000882319F084E08D832DC08EEF0E9444032C
:1009500076018EEFD81AF70181917F010E9444033E
:10096000EC14FD04C1F78FEF0E9444038FEF0E9447
:1009700044030E944B038A878F71853071F4011103
:1009800016C0CE010E94390381E0DF91CF910F9113
:10099000FF90EF90DF90CF90089581E18D83CE019D
:1009A0000E943903CE010E94390380E0EECF88E532
:1009B00092E00E944E03811102C085E1C4CF20E085
:1009C00030E0A9016DE0CE010E948203882311F07E
:1009D00084E1B9CF0E944B038111FACFD2CF0F939C
:1009E0004091DB015091DC016091DD017091DE01ED
:1009F000411551056105710599F0082F29EE31E087
:100A00008091E9039091EA030E948104882349F0D0
:100A10001092DB011092DC011092DD011092DE01D8
:100A200081E00F9108950F93CF93C82F8091DA0141
:100A3000811105C0C1E08C2FCF910F910895409195
:100A400000015091010160910201709103010C2F8E
:100A500029EE31E08091E9039091EA030E9481043C
:100A6000811102C0C0E0E7CFCC2321F381E00E94D6
:100A7000EF048823B9F31092DA01DDCF8F929F92B1
:100A8000AF92BF92EF92FF920F931F93CF934B01C0
:100A90005C01C42F8091000190910101A09102019D
:100AA000B091030188159905AA05BB0551F181E0B4
:100AB0000E94130581110BC080E0CF911F910F910F
:100AC000FF90EF90BF90AF909F908F90089589EE28
:100AD000E82E81E0F82E00E012E030E020E0B501E1
:100AE000A4018091E9039091EA030E94DF03882327
:100AF00019F38092000190920101A0920201B0923C
:100B000003014091DA014C2B4093DA0181E0D5CF0B
:100B10008F929F92AF92BF92CF92DF92EF92FF920D
:100B2000CF932AE834E03093EA032093E903882343
:100B300009F46DC040E060E070E0CB010E943E052A
:100B400081110BC080E0CF91FF90EF90DF90CF90AC
:100B5000BF90AF909F908F9008958091A7038F775B
:100B600089F78091B3039091B403A091B503B0913C
:100B7000B60384369105A105B10520F3C090AF03FB
:100B8000D090B003E090B103F090B203C114D1044F
:100B9000E104F104B9F240E0C701B6010E943E054C
:100BA000882381F28091F4019091F50181159240A2
:100BB00049F6A091F901AA2329F26091F7017091F9
:100BC000F8016115710509F4BDCF2091F6012223CA
:100BD00009F4B8CFA093A80420939A0490E080E091
:100BE00030E0E1E0F0E0C82FAF01082E02C0440F72
:100BF000551F0A94E2F72417350769F041E0480FC2
:100C000001968930910579F74093A3049BCFC12CBD
:100C1000D12C7601C0CF8093A3042091FF013091A5
:100C2000000250E040E02115310541F420910D0211
:100C300030910E0240910F025091100220939B04BC
:100C400030939C0440939D0450939E0446015701A9
:100C5000860E971EA11CB11C8092A9049092AA0432
:100C6000A092AB04B092AC04E091FA01F091FB01C8
:100C7000F093AF04E093AE04B0E00E940A1CDC01E4
:100C8000CB01880D991DAA1DBB1D8093B0049093C4
:100C9000B104A093B204B093B30425E0EE0FFF1F9C
:100CA0002A95E1F7E150FE4FEF2FFF27E6958E0FD3
:100CB0009F1FA11DB11D8093A4049093A504A09330
:100CC000A604B093A7048090FC019090FD01B12C84
:100CD000A12C8114910441F48090090290900A02A1
:100CE000A0900B02B0900C02C81AD90AEA0AFB0ABB
:100CF000C80CD91CEA1CFB1C04C0F694E794D794DA
:100D0000C794CA95D2F7C0929F04D092A004E092F3
:100D1000A104F092A20485EFC8168FE0D806E10482
:100D2000F10428F48CE08093AD0481E00CCF80E1E5
:100D300025EFC2162FEFD206E104F104A0F3809153
:100D4000150290911602A0911702B091180280939B
:100D5000B0049093B104A093B204B093B30480E2C2
:100D6000E2CF4F925F926F927F928F929F92AF925B
:100D7000BF92CF92DF92EF92FF920F931F93CF9388
:100D8000DF93EC01423051056105710590F480E07C
:100D9000DF91CF911F910F91FF90EF90DF90CF9057
:100DA000BF90AF909F908F907F906F905F904F908B
:100DB000089589859A85AB85BC850196A11DB11DD5
:100DC00084179507A607B70710F3CB88DC88ED8852
:100DD000FE888F89803109F042C0BB27A72F962F4C
:100DE000852F480159012A013B01C80ED91EEA1E70
:100DF000FB1E8091000190910101A0910201B09130
:100E00000301C816D906EA06FB0699F58F898031D9
:100E1000C1F5B301A201552766277727440F551F57
:100E200047515E4FFA01918280828091DA018160A0
:100E30008093DA018A89823080F08D819E81AF8132
:100E4000B8858C0D9D1DAE1DBF1D8093DB01909359
:100E5000DC01A093DD01B093DE0181E099CFDB01DD
:100E6000CA01E7E0B695A79597958795EA95D1F7DA
:100E7000B8CF40E0C701B6010E943E058111C6CF40
:100E800086CFB301A2014F77552766277727440FF6
:100E9000551F440F551F47515E4FFA0180829182C2
:100EA000A282B382C2CF8F929F92AF92BF92CF9213
:100EB000DF92EF92FF920F931F93CF93DF93FC018A
:100EC00081859285A385B4850196A11DB11D8417E6
:100ED0009507A607B70770F480E0DF91CF911F91C7
:100EE0000F91FF90EF90DF90CF90BF90AF909F90C9
:100EF0008F90089583889488A588B68887898031E3
:100F000089F5BB27A72F962F852FE9016A017B0161
:100F10008F01BC01CD01680D791D8A1D9B1D80903C
:100F2000000190900101A0900201B090030186168B
:100F30009706A806B90601F5F8018789803111F5F1
:100F4000DD24EE24FF24F601EE0FFF1FE751FE4FD4
:100F500080819181B0E0A0E088839983AA83BB83DC
:100F600081E0BBCFDB01CA01C7E0B695A795979595
:100F70008795CA95D1F7C9CF40E00E943E058111FF
:100F8000DBCFAACFE894C7F8DD24EE24FF24F601D6
:100F9000EE0FFF1FEE0FFF1FE751FE4F8081918183
:100FA000A281B381BF70D8CF4F925F926F927F9230
:100FB000AF92BF92CF92DF92EF92FF920F931F9367
:100FC000CF93DF9300D000D0CDB7DEB78C0149833B
:100FD0005A836B837C835901C12CD12C7601412C1F
:100FE00082E0582E612C712C49815A816B817C8161
:100FF0009E012F5F3F4FC8010E945307882339F19C
:10100000F8018585A301920104C0220F331F441FFC
:10101000551F8A95D2F7DA01C901C80ED91EEA1EFA
:10102000FB1E49815A816B817C818789803111F156
:1010300088EF9FEFAFEFBFE0481759076A077B07BC
:1010400098F2F501C082D182E282F38281E00F90B2
:101050000F900F900F90DF91CF911F910F91FF9004
:10106000EF90DF90CF90BF90AF907F906F905F90A8
:101070004F90089588EF9FEFA0E0B0E0DDCFCF93D1
:10108000DF93FC012581222321F080E0DF91CF91C5
:101090000895EC018091AD04803159F582E085839B
:1010A000178A108E118E128E8091AE049091AF042B
:1010B000B0E0A0E025E0880F991FAA1FBB1F2A956A
:1010C000D1F7838B948BA58BB68B86E994E09C8FAC
:1010D0008B8F81E08C831E821F82188619861A8668
:1010E0001B861C861D861E861F86188A198A1A8AE8
:1010F000CDCF803251F683E085834091B00450918A
:10110000B1046091B2047091B304478B508F618F2A
:10111000728F9F012D5E3F4F86E994E00E94D407B5
:101120008111D3CFB2CF8F929F92AF92BF92CF92C5
:10113000DF92EF92FF920F931F93CF93DF93EC0117
:101140008D8181110EC080E0DF91CF911F910F91B1
:10115000FF90EF90DF90CF90BF90AF909F908F90D7
:1011600008950B891C892D893E89041715072607C8
:10117000370748F34A015B01823031F48A869B8647
:10118000AC86BD8681E0E0CF81149104A104B10456
:1011900049F41E821F82188619861A861B861C86B1
:1011A0001D86F0CF0A851B852C853D85EB8DFC8D3A
:1011B000858590E00996B901A8014150510961095E
:1011C0007109082E04C076956795579547950A943E
:1011D000D2F775016401E1E0CE1AD108E108F10807
:1011E00004C0F694E794D794C7948A95D2F7C416AE
:1011F000D506E606F70620F0012B022B032B11F58E
:101200008F89988DA98DBA8D8E839F83A887B98782
:101210008E010A5F1F4FC114D104E104F10409F4E7
:10122000ADCF4E815F816885798598018B8D9C8DCE
:101230000E94530791E0C91AD108E108F108811111
:10124000EACF81CFC41AD50AE60AF70AE1CF3F9266
:101250004F925F926F927F928F929F92AF92BF92C6
:10126000CF92DF92EF92FF920F931F93CF93DF9372
:10127000CDB7DEB72C970FB6F894DEBF0FBECDBF4B
:101280005C01DC015B968D909C905C9716964D906E
:101290005D906D907C901997411451046104710424
:1012A00009F468C0BFEF4B1A5B0A6B0A7B0A312C4A
:1012B000F40181859285A385B4859C01AD012F5FE2
:1012C0003F4F4F4F5F4F29873A874B875C877301AA
:1012D00062011D821E821F821886F401818592851B
:1012E000A385B4852D813E814F8158852817390704
:1012F0004A075B0708F056C089859A85AB85BC858F
:101300008C159D05AE05BF0550F482E0C82ED12C8A
:10131000E12CF12C92E0492E512C612C712C9E0174
:101320002F5F3F4FB701A601C4010E9453078823D6
:10133000C9F189819A81AB81BC81892B8A2B8B2B46
:1013400009F1260137019FEF491A590A690A790AFA
:101350002D813E814F8158852F5F3F4F4F4F5F4F0B
:101360002D833E834F8358873FEFC31AD30AE30A86
:10137000F30AB3CFF401408051806280738033243C
:10138000339496CFC414D504E604F70409F70FEF9D
:101390001FEF2FEF3FE0B701A601C4010E94B10685
:1013A000811119C080E02C960FB6F894DEBF0FBEF5
:1013B000CDBFDF91CF911F910F91FF90EF90DF9004
:1013C000CF90BF90AF909F908F907F906F905F90E5
:1013D0004F903F900895D50116964D915D916D9176
:1013E0007C911997411551056105710539F09701F7
:1013F0008601C4010E94B1068823A1F2D501169688
:10140000CD92DD92ED92FC921997332051F0D701E5
:10141000C6010196A11DB11DF40180839183A283B1
:10142000B383F5018789908DA18DB28D892B8A2B8D
:101430008B2B39F48481C78AD08EE18EF28E80683E
:101440008483F50184818062848381E0ACCF1F9323
:10145000CF93DF93FC0125812223D1F1162FEC01DC
:10146000848187FF2AC0668577858089918941E0DC
:101470000E943E05882361F1EA8980E2E89FF0013D
:101480001124E751FE4F309719F18D81823040F4DD
:101490008B899C89AD89BE89848F958FA68FB78FE4
:1014A0008F89988D938F828F8F89988DA98DBA8D12
:1014B000B58BA48B8C818F778C83111103C08C81A9
:1014C0008F7E8C83812FDF91CF911F910C94130518
:1014D00080E0DF91CF911F910895FF920F931F93AA
:1014E000CF93DF93EC018D81813041F090E080E07B
:1014F000DF91CF911F910F91FF9008958C8181FF13
:10150000F5CF82FD1BC00091E9031091EA03C801E9
:101510000E946C030E944B03F82EC8010E943903FD
:101520008FEFF812E3CF8C8185FF1BC060E0CE0106
:101530000E94270A8C818F7D8C83D8CF4B895C8950
:101540006D897E898A859B85AC85BD8584179507C5
:10155000A607B707C1F2CE010E9493088111D3CF2D
:10156000C5CF4091DB015091DC016091DD017091AC
:10157000DE01452B462B472B21F080E00E94EF0433
:10158000B5CF80618C832A853B85317080E092E005
:10159000821B930BADCFCF93DF93EC0161E00E94F0
:1015A000270A882311F01D8281E0DF91CF910895F1
:1015B0002F923F924F925F926F927F928F929F9263
:1015C000AF92BF92CF92DF92EF92FF920F931F9351
:1015D000CF93DF9300D000D01F92CDB7DEB77C0150
:1015E0005B01342E5D83DC0115968C91159781305B
:1015F00009F0CEC014962C9021FECAC022FCB4C0C3
:10160000C32CDD8022947FE027222094B22DB1707C
:101610002B2ED7011A964D915D916D917C911D975E
:10162000C114D10409F428C15B968D919C915C97FB
:10163000FC0174807A948A019B0169E036952795B4
:10164000179507956A95D1F770228A01117071106C
:1016500020C001151105E9F416964D915D916D912B
:101660007C911997411551056105710509F099C0E3
:1016700057968D919D910D90BC91A02D0097A1053D
:10168000B10509F0B0C0C7010E942709882309F4F9
:101690007FC080E092E0801B910B46018C159D0578
:1016A00008F44C01D7015B964D915C915C971696BE
:1016B0008D919D910D90BC91A02D0297A109B1092A
:1016C000FA01258504C0880F991FAA1FBB1F2A9500
:1016D000D2F74685578560897189840F951FA61FAB
:1016E000B71F9C01AD01270D311D411D511D290161
:1016F0003A01811432E0930609F07BC08091000129
:1017000090910101A0910201B0910301841595050A
:10171000A605B70559F48FEF9FEFDC018093000118
:1017200090930101A0930201B0930301022D950152
:10173000B301A2018091E9039091EA030E94810420
:10174000882331F19EEFB91AC818D908F7018285AC
:101750009385A485B585880D991DA11DB11D82872E
:101760009387A487B58755CFF70143895489658945
:10177000768982859385A485B585481759076A07B8
:101780007B0709F43DCFC7010E949308811138CF30
:1017900081E090E0D70113969C938E93129780E09E
:1017A00007C09E012F5F3F4F0E945307811102C067
:1017B00090E079C089819A81AB81BC81F701238D4A
:1017C000348DF901278948EF5FEF60E070E0203148
:1017D00021F048EF5FEF6FEF7FE084179507A607D2
:1017E000B70708F050CFF70186839783A087B187AA
:1017F00050CF0115110599F5D7011A964D915D91BC
:101800006D917C911D9753968D919D910D90BC91FA
:10181000A02D481759076A077B0708F181E00E944D
:101820001305882309F4B4CF4092000150920101BE
:1018300060920201709203018091DA0181608093CD
:10184000DA01C80187519E4FD5019C01280D391D31
:10185000FC012E173F0759F04D914193FACF41E01B
:10186000C301B2010E943E058111EBCF91CF281B2D
:10187000390BA20EB31E68CFF70183899489A5891D
:10188000B68984179507A607B70738F48481438B78
:10189000548B658B768B80688483F701848183FD0C
:1018A0001AC0832D9D810F900F900F900F900F9075
:1018B000DF91CF911F910F91FF90EF90DF90CF902C
:1018C000BF90AF909F908F907F906F905F904F9060
:1018D0003F902F90089561E0C7010E94270A882356
:1018E00009F456CFDECFCF93DF931F92CDB7DEB78B
:1018F000698341E050E0BE016F5F7F4F0E94D80ACC
:101900000F90DF91CF910895FC01DB0112968D912C
:101910009C9113979383828380E291E091838083EB
:1019200014968C911497848315968C9115978583C2
:1019300016964D915D916D917C91199746835783D1
:10194000608771871A964D915D916D917C911D977D
:1019500042875387648775871E964D915D916D917F
:101960007C91519746875787608B718B52968C91EB
:101970005297828B53964D915D916D917C915697C4
:10198000438B548B658B768B57964D915D916D9102
:101990007C915A97478B508F618F728F5B968D9198
:1019A0009C91948F838F08950895FC01818D928D71
:1019B000009719F061E00C94270A0895DC0159960C
:1019C000ED91FC913097B9F083899489A589B68906
:1019D0004285538564857585841B950BA60BB70BD3
:1019E000811520E89207A105B10538F08FEF9FE738
:1019F000A0E0B0E0089590E080E00895DC01599601
:101A00008D919C91009739F0DC01ED91FC9104805F
:101A1000F581E02D099490E080E00895CF93DF9365
:101A2000EC01E98DFA8D309749F481E090E09B83D9
:101A30008A8390E080E0DF91CF9108951382128233
:101A4000898D9A8D0E94D80AE98DFA8D2281338181
:101A5000232B59F7F0CFCF93DF931F92CDB7DEB78B
:101A60006983DC01ED91FC910280F381E02D41E07E
:101A700050E0BE016F5F7F4F09950F90DF91CF91CE
:101A800008952F923F924F925F926F927F928F9222
:101A90009F92AF92BF92CF92DF92EF92FF920F93FD
:101AA0001F93CF93DF9300D01F92CDB7DEB7FC0119
:101AB0008581811118C08FEF9FEF0F900F900F90CD
:101AC000DF91CF911F910F91FF90EF90DF90CF901A
:101AD000BF90AF909F908F907F906F905F904F904E
:101AE0003F902F900895848180FFE5CF43895489EA
:101AF0006589768982859385A485B585312C212CCD
:101B0000481759076A077B0719F022242394312CC0
:101B10006F012101CE0101963C01DF011696BB83C6
:101B2000AA834114510409F4C5C0F60142855385C6
:101B3000648575854A01F1E09F22D6015B968D91FF
:101B40009C915C978A019B01E9E036952795179552
:101B50000795EA95D1F71596EC91E230E9F5FC018D
:101B6000628D738D848D958D600F711F821F931F01
:101B7000A12C22E0B22EA818B9084A145B0408F47C
:101B80005201F601248126FD04C0A114F2E0BF0633
:101B900071F4009100011091010120910201309136
:101BA0000301061717072807390709F05EC040E050
:101BB0000E943E05882309F47ECFC40187519E4FC1
:101BC000D3019C012A0D3B1DFC012E173F0709F490
:101BD0006CC041914D93F9CFDC011496BC90BA943E
:101BE000B0228114910479F4B1100DC0452B462B1D
:101BF000472B69F5F6018789908DA18DB28D86837B
:101C00009783A087B187D6015B96ED91FC915C9795
:101C100016966D917D918D919C91199762507109E5
:101C200081099109258504C0660F771F881F991FB8
:101C30002A95D2F70685178520893189600F711F93
:101C4000821F931F6B0D711D811D911D91CFD601B8
:101C500016964D915D916D917C9119972A813B81EA
:101C60000E9453078111CFCF26CF730185019401C4
:101C7000AB01BC018091E9039091EA030E94DF036C
:101C8000882309F418CF6A0C7B1CF60182859385A2
:101C9000A485B5858A0D9B1DA11DB11D82879387E3
:101CA000A487B5874A185B083CCF281B390B620E06
:101CB000731EEBCF2A94232809F0FDCE898190E092
:101CC000FCCEFC01818D928D009711F00C94410D9A
:101CD0008FEF9FEF08950F931F93CF93DF93EC0146
:101CE000898D9A8D10E000E0009799F00E94410DD7
:101CF0008C010F3F100769F0898D9A8DFC01428598
:101D000053856485758541505109610971090E94A7
:101D10009308C801DF91CF911F910F910895089505
:101D2000FF920F931F93CF93DF93F82E062FC7E0F8
:101D3000D0E010E061E0802F0E9463018F2D0E94AF
:101D40003A010C2E01C0880F0A94EAF7182B60E0C4
:101D5000802F0E946301219768F7812FDF91CF9137
:101D60001F910F91FF900895EF92FF920F931F9391
:101D7000CF93DF938091D6040E943A01892B31F0F2
:101D800060E070E0CB010E94E701F4CFDFB7F89488
:101D90006091D5048091D6040E94900E082F609126
:101DA000D5048091D6040E94900EC82F6091D5046E
:101DB0008091D6040E94900E182FF12CE12C809176
:101DC000D7048E151F0479F070F061E08091D5047E
:101DD0000E94630160E08091D5040E9463018FEF4F
:101DE000E81AF80AECCFDFBF6C2F70E090E080E0DB
:101DF000982F872F762F6627802B612B000F000BE3
:101E000010E030E020E0302F222711270027602B40
:101E1000712B822B932BDF91CF911F910F91FF900C
:101E2000EF900895CF92DF92EF92FF92CF93CAE0A6
:101E3000C12CD12C76010E94B40EC60ED71EE81E0E
:101E4000F91E60E070E0CB010E94E701C15099F7F4
:101E5000C701B6012AE030E040E050E00E949C1D3E
:101E6000CA01B901CF91FF90EF90DF90CF90089514
:101E7000CF92DF92EF92FF921F93CF93DF93EC010B
:101E800080E2689FF0011124E751FE4F9385917124
:101E900061F0842F827449F080E0DF91CF911F912F
:101EA000FF90EF90DF90CF900895142F6A8B809170
:101EB000000190910101A0910201B09103018E8770
:101EC0009F87A88BB98BC488D588F12CE12C76012B
:101ED000DD24CC24CF8AD88EE98EFA8E828D938D24
:101EE000B0E0A0E0AC01BD014C295D296E297F293D
:101EF0004F8B588F698F7A8F83858871B1F4848D69
:101F0000958DA68DB78D8B8B9C8BAD8BBE8B81E019
:101F10008D831F701C831E821F82188619861A8665
:101F20001B861C861D8681E0B8CF803109F0B4CFB6
:101F30009E012D5E3F4F8B8D9C8D0E94D407882380
:101F400009F4AACF84E0E4CFCF93DF93EC0188813A
:101F50009981009711F00E945D1E198218821D82DE
:101F60001C821B821A82DF91CF910895FC0180812F
:101F70009181009711F00C945D1E08950C945D1EE4
:101F8000FB0101900020E9F73197AF01461B570B89
:101F9000DC01ED91FC910280F381E02D09948F9298
:101FA0009F92AF92BF920F931F93CF93DF93CDB7C2
:101FB000DEB7A1970FB6F894DEBF0FBECDBF19A252
:101FC000423008F44AE08E010F5D1F4F842E912CA1
:101FD000B12CA12CA50194010E947A1DE62FB90114
:101FE000CA01EA3004F5E05DD801EE938D01232BA0
:101FF000242B252B79F790E080E0109729F0BD0184
:102000008BEE93E00E94C00FA1960FB6F894DEBF4E
:102010000FBECDBFDF91CF911F910F91BF90AF90B9
:102020009F908F900895E95CDFCFCF92DF92EF927F
:10203000FF92CF93DF936B017C016DE28BEE93E017
:102040000E94C602EC0166277727CB016C197D0937
:102050008E099F094AE00E94CF0F8C0F9D1FDF91D0
:10206000CF91FF90EF90DF90CF900895CF93DF93C3
:10207000BC018BEE93E00E94C00FEC0162E471E0C2
:102080008BEE93E00E94C00F8C0F9D1FDF91CF91CC
:1020900008950F931F93CF93DF93EC01FB014481CD
:1020A000558160817181E881F9810280F381E02DA1
:1020B00009958C0162E471E0CE010E94C00F800F8F
:1020C000911FDF91CF911F910F9108950F931F934F
:1020D000CF93DF93EC0188819981009759F02A8191
:1020E0003B812617370730F081E0DF91CF911F91B8
:1020F0000F9108958B016F5F7F4F0E94E61E00973E
:1021000059F0998388831B830A832C813D81232B7B
:1021100059F7FC011082E8CF80E0E7CFEF92FF9201
:102120000F931F93CF93DF93EC017B018A01BA01D8
:102130000E94661081110BC0CE010E94A40FCE0137
:10214000DF91CF911F910F91FF90EF9008951D8324
:102150000C83B701888199810E94B91FF0CFCF937A
:10216000DF93EC01FB018617970749F060817181CD
:102170006115710541F0448155810E948E10CE0198
:10218000DF91CF9108950E94A40FF9CF3F924F9213
:102190005F926F927F928F929F92AF92BF92CF92F7
:1021A000DF92EF92FF920F931F93CF93DF93CDB700
:1021B000DEB72B970FB6F894DEBF0FBECDBF7C0104
:1021C000FE013196CE010C966F0130E23193E81793
:1021D000F907E1F7DA0130E087E09D91B92E992304
:1021E00009F43CC09E32F1F48A30C9F480E02B96A9
:1021F0000FB6F894DEBF0FBECDBFDF91CF911F9118
:102200000F91FF90EF90DF90CF90BF90AF909F9095
:102210008F907F906F905F904F903F90089538E03F
:102220008AE0DBCFE2E6F1E04491442321F03196ED
:102230009413FACFDBCF8317C8F24FED490F4E3519
:10224000A8F64FE9490F4A3118F440EEB42EB90E02
:10225000F601E30FF11DB0823F5FBFCF898180326D
:1022600029F2322E8B01DB015B968D919C915C975C
:10227000F701948F838F16961D921D921D921C92CA
:102280001997FB011286138614861586F80182853C
:102290009385A485B5854389548965897689841792
:1022A0009507A607B70708F04DC025E0B695A79596
:1022B000979587952A95D1F7F82FFF70AF2ED80103
:1022C00015968C91823008F491CFC8010E94410D7F
:1022D00097FD8CCFF80182859385A485B5854F96AF
:1022E000A11DB11D82879387A487B587F0E2AF9EB9
:1022F000B001112467517E4F6115710509F476CF45
:10230000DB018C91882341F0853E09F062C0BB203F
:1023100029F0BB24B394BACFB1100EC0F701A28A42
:102320008091000190910101A0910201B0910301FF
:1023300086879787A08BB18BDB018C918111E9CFC8
:10234000BB24B394832D8271823109F04FCFBB201F
:1023500009F44DC0F701668577858089918941E050
:102360000E943E05882309F441CFD70152968C91F3
:10237000B0E28B9FC001112487519E4F009709F452
:1023800035CFFC013A9626E1DF011D922A95E9F747
:102390002BE0F601DC0101900D922A95E1F721E294
:1023A00038E2FC01318B208B40E058E057874687AC
:1023B000338B228B318F208F578B468B81E00E948D
:1023C0001305882309F412CF432DD70152966C913F
:1023D0000AC04BE050E0C6010E94A31F892B09F000
:1023E00055CF432D6A2DC7010E94380F00CFF80149
:1023F0008581823009F4FACEC8010E94270988231A
:1024000009F4F4CED8015B96ED91FC915C97169699
:102410008D909D90AD90BC901997B2E08B1A910869
:10242000A108B108858504C0880C991CAA1CBB1C96
:102430008A95D2F786859785A089B189880E991EDD
:10244000AA1EBB1E848124013501480E511C611C4B
:10245000711C84149504A604B70409F1E1E04E1A36
:1024600051086108710881E00E941305882309F46E
:10247000BDCEE9EEF1E0119289EE93E08E179F0751
:10248000D1F74092000150920101609202017092D6
:1024900003018091DA0181608093DA01DACFD801FB
:1024A0005B96ED91FC91258580E092E0A0E0B0E0A4
:1024B00004C0880F991FAA1FBB1F2A95D2F7F801E5
:1024C0004389548965897689840F951FA61FB71F94
:1024D000838B948BA58BB68BD70152961C9289EE79
:1024E00091E04FCFEF92FF920F931F93CF93DF9323
:1024F000EC017B018A011B821A8288EE93E0A0E046
:10250000B0E08C839D83AE83BF8384E391E09983A5
:1025100088838DE190E00E94C11D9A8F898F00977A
:1025200079F02DE1F701DC0101900D922A95E1F798
:102530004CE050E0B801CE010C960E94C01F188EEE
:10254000DF91CF911F910F91FF90EF9008951F920F
:102550000F920FB60F9211242F933F938F939F9357
:10256000AF93BF938091E1019091E201A091E301CB
:10257000B091E4013091E00123E0230F2D3758F5AD
:102580000196A11DB11D2093E0018093E10190937C
:10259000E201A093E301B093E4018091E501909101
:1025A000E601A091E701B091E8010196A11DB11DDE
:1025B0008093E5019093E601A093E701B093E801D1
:1025C000BF91AF919F918F913F912F910F900FBE2F
:1025D0000F901F90189526E8230F0296A11DB11D9C
:1025E000D2CF1F920F920FB60F9211242F933F93C9
:1025F0004F935F936F937F938F939F93AF93BF930B
:10260000EF93FF938BEE93E00E94A402FF91EF9172
:10261000BF91AF919F918F917F916F915F914F91FA
:102620003F912F910F900FBE0F901F9018951F9202
:102630000F920FB60F9211242F938F939F93EF93C6
:10264000FF93E091FB03F091FC038081E091010492
:10265000F091020482FD1BC09081809104048F5F81
:102660008F7320910504821741F0E0910404F0E09B
:10267000E551FC4F958F80930404FF91EF919F915A
:102680008F912F910F900FBE0F901F901895808102
:10269000F4CFEBEEF3E01382128288EE93E0A0E039
:1026A000B0E084839583A683B7832EE031E0318345
:1026B000208325EC30E03587248724EC30E0378711
:1026C000268720EC30E0318B208B21EC30E0338BFF
:1026D000228B22EC30E0358B248B26EC30E0378BDC
:1026E000268B118E128E138E148EE8E8F4E020E50E
:1026F00020831182EAE8F4E015821682118613869F
:1027000042E050E060E070E0448755876687778755
:1027100013A215A614A620E231E033A722A717A61C
:10272000E0EEF4E01382128284839583A683B7835C
:1027300084E391E091838083128E118E1486E3ED01
:10274000F4E08CE291E091838083158216821782F7
:10275000108680E090E0A0E8BFE381879287A3879E
:10276000B4870895CF93DF93CDB7DEB7C658D109AC
:102770000FB6F894DEBF0FBECDBF789484B58260EB
:1027800084BD84B5816084BD85B5826085BD85B515
:10279000816085BD80916E00816080936E00109293
:1027A000810080918100826080938100809181000E
:1027B000816080938100809180008160809380009F
:1027C0008091B10084608093B1008091B0008160FD
:1027D0008093B00080917A00846080937A00809129
:1027E0007A00826080937A0080917A008160809381
:1027F0007A0080917A00806880937A001092C100FC
:10280000E091FB03F091FC0382E08083E091F70309
:10281000F091F8031082E091F903F091FA0380E15E
:10282000808310920304E091FF03F091000486E09E
:102830008083E091FD03F091FE03808180618083BD
:10284000E091FD03F091FE03808188608083E09138
:10285000FD03F091FE03808180688083E091FD0399
:10286000F091FE0380818F7D808385E491E00E945A
:1028700036108091B904882321F084EB94E00E9403
:10288000CB0A109295041092930410929004109227
:102890008F048AE080938E040E941A027B0161E01B
:1028A00080918E040E94910161E080918E040E94CB
:1028B0006301DFB6F8948091DF01811127C0EAE956
:1028C000F1E08491EEEAF1E09491E82FF0E0EE0F70
:1028D000FF1FEE58FE4FA591B491EC91E92321F42E
:1028E00061E08AE00E94630161E08AE00E94910158
:1028F0008CB580618CBD8CB580648CBD61E08DE051
:102900000E94910161E08BE00E9491018091DF01C2
:102910008F5F8093DF01DFBE82E580938804109291
:10292000890480918804909189040E9469031AE0C7
:102930008FEF0E9444031150D9F78AE894E00E9477
:102940006C0320E030E0A90160E08AE894E00E9496
:102950008203182F809394048130E1F00E941A02C0
:102960006E197F09613D774060F381E080938F04A9
:102970008AE894E00E94390385E591E00E943610D0
:1029800060ED77E080E090E00E94E701F0E0E0E0B9
:10299000099578C02AEA31E040E050E068E08AE832
:1029A00094E00E94820382FF2AC0109395048091D4
:1029B0009504812C912C5401823029F4812C912C86
:1029C000A12C20E4B22E20E030E0A90167E38AE8E0
:1029D00094E00E948203A501940169E28AE894E0F0
:1029E0000E948203809394048823C1F00E941A02FB
:1029F0006E197F09613D774030F388E0B7CF14E06E
:102A00000E944B03809394041150D1F78A3A11F03D
:102A100082E0ACCF82E080939504C9CF8091950489
:102A20008230D1F420E030E0A9016AE38AE894E042
:102A30000E948203882311F086E098CF0E944B0306
:102A4000807C803C19F483E0809395040E944B03C2
:102A50000E944B030E944B038AE894E00E943903D2
:102A600080E5809388041092890481E00E948805A3
:102A7000882309F434C284EB94E00E943F08882341
:102A800009F47ACF8EE08093D5048FE08093D6044A
:102A900061E08EE00E94910160E08091D6040E9486
:102AA000910181E08093D70461E771E08BEE93E0C0
:102AB0000E94C00F0E94B40E97FF18C20E9415100A
:102AC00062E471E08BEE93E00E94C00F68EE73E069
:102AD00080E090E00E94E70180E29DEAA7ECB7E485
:102AE0008093DC049093DD04A093DE04B093DF04B4
:102AF0000E94120F0E94ED1A0E943A1D6093D804A2
:102B00007093D9048093DA049093DB0480E891E019
:102B10000E943610CE0101967C0194E3292E91E0AB
:102B2000392E80E2C82E81E0D82E69E971E08BEE63
:102B300093E00E94C00F0E94120F8090D8049090E2
:102B4000D904A090DA04B090DB04681979098A09E5
:102B50009B090E94ED1A2091DC043091DD04409124
:102B6000DE045091DF040E94C81C4B015C01AC01E3
:102B70009B010E94751D6EE971E081111BC024014B
:102B80003501E89477F82FEF3FEF4FE75FE7C30198
:102B9000B2010E94751D8111ADC12FEF3FEF4FE7CC
:102BA0005FE7C301B2010E94E61A18160CF0A2C139
:102BB00062EA71E08BEE93E00E94C00F6AEA71E076
:102BC0008BEE93E00E94C00F0E94120F4090D80439
:102BD0005090D9046090DA047090DB046419750990
:102BE000860997090E94ED1A0E943A1D2B01072EB3
:102BF000000C880B990B97FF18C20E94151062E415
:102C000071E08BEE93E00E94C00F1BA21AA21DA2DE
:102C10001CA21FA21EA24AE0B701C2010E947A189C
:102C2000F70101900020E9F73197AF014E195F09D4
:102C3000B701CE0182960E948E1021961FAE1EAE65
:102C4000219723961FAE1EAE239725961FAE1EAE6C
:102C50002597870122E044E0C501B4010E945C1879
:102C6000009709F4E6C1FC0101900020E9F73197D3
:102C7000AF01481B590BBC01CE01CF960E948E10AC
:102C80001A8219821C821B821E821D82BE01615C17
:102C90007F4FC7010E94AF10AD80BE809FEFA91A81
:102CA000B90AB501C7010E9466108111C7C1C701E9
:102CB0000E94A40F8AA09BA08114910409F4CBC1A7
:102CC000AEA0BFA0A114B104B1F08D819E81A80E69
:102CD000B91EB501C7010E946610882309F4BBC163
:102CE00029813A818D819E81B401820F931F0E94B8
:102CF000B91FBE82AD82EF961FAE1EAEEF97C158D0
:102D0000DF4F19821882CF57D040CF57DF4F19823B
:102D10001882C158D040B701CE0183589F4F0E94FE
:102D2000AF10C7010E94B60FCE01CF960E94B60F1A
:102D3000CE0182960E94B60FE9961FAE1EAEE997AD
:102D4000EB961FAE1EAEEB97ED961FAE1EAEED9747
:102D5000BE0163587F4FCE0189589F4F0E94AF102C
:102D60001C821B82DA82C9821E82C7010E943F0830
:102D7000B701CE01CF960E94840C1DA21CA2DBA23B
:102D8000CAA21FA225968FAD2597811168C1A09672
:102D90001FAE1EAEA09788EE93E0A0E0B0E0A49630
:102DA0008CAF9DAFAEAFBFAFA4976E963FAE2EAEC9
:102DB0006E97E7961FAE1EAEE797A9961FAEA9972E
:102DC000A0968EAD9FADA0979093E3048093E2040C
:102DD000A4968CAD9DADAEADBFADA4978093E40439
:102DE0009093E504A093E604B093E704A8968CAD15
:102DF0009DADAEADBFADA8978093E8049093E90474
:102E0000A093EA04B093EB04ACE5B0E0AC0FBD1FB7
:102E10001C96ECEEF4E08D91819394E0E93FF90784
:102E2000D1F7E796EEADFFADE797F093FA04E093A4
:102E3000F904309709F43BC18581882309F437C12F
:102E4000BE0169587F4F80EE94E00E944910809146
:102E5000F9049091FA04009761F00E94CB0A8091E6
:102E6000F9049091FA040E945D1E1092FA041092E7
:102E7000F904BE0169587F4F8BEE93E00E94491020
:102E80008091F9049091FA04009761F00E94CB0AB6
:102E90008091F9049091FA040E945D1E1092FA0448
:102EA0001092F904CE0189589F4F0E94B60F64E634
:102EB00070E080E090E00E94E701CE0183589F4FD0
:102EC0000E94B60F80E090E0892B09F42ECE0E947C
:102ED0009002882309F425CE0E94000022CE80E0D3
:102EE0000E948805882309F447CDC5CD4AE00E9499
:102EF000CF0FE6CD2FEF3FEF4FE75FE4C501B40101
:102F00000E94701D18161CF466EA71E053CE2FEF74
:102F10003FEF4FE75FECC501B4010E94E61A87FD61
:102F2000F3CF20E030E0A901C501B4010E94E61A08
:102F300087FF78C06DE28BEE93E00E94C602C50168
:102F4000B40190582AE037ED43EA5BE30E945C1C31
:102F5000CD57DF4F688379838A839B83C358D040E2
:102F60000E94411D2B013C010E94EB1A9B01AC0108
:102F7000CD57DF4F688179818A819B81C358D040CA
:102F80000E945B1CCD57DF4F688379838A839B83C4
:102F9000C358D0404AE0C301B2010E94CF0F6EE295
:102FA0008BEE93E00E94C60220E030E040E251E464
:102FB000CD57DF4F688179818A819B81C358D0408A
:102FC0000E944C1BCD57DF4F688379838A839B8394
:102FD000C358D0400E94411D2B01712C612C4AE046
:102FE000C301B2010E94CF0FC301B2010E94EB1ACC
:102FF0009B01AC01CD57DF4F688179818A819B812C
:10300000C358D0400E945B1C20E030E040E251E415
:103010000E944C1B0E94411D90E080E04AE00E940B
:10302000CF0FCCCDC501B4018DCF4AE00E94CF0FA8
:10303000E6CDCE01CF960E94A40F22CE29813A81FF
:103040008D819E816BEB71E0820F931F0E94B91FEF
:10305000BE82AD822FCEC7010E94A40F4CCE27E1C5
:103060004BEC51E0BE01615C7F4FCE0182960E9425
:10307000C610882309F48BCECE01CF960E94CB0ACE
:103080004DA95EA96FA978ADCE0182960E949308E2
:10309000BE016E5D7F4FC7010E94840C4BEC51E076
:1030A000B701CE01845A9F4F0E94721289CE8DEBD8
:1030B00091E00E943610E4CEEF920F931F93CF93CE
:1030C000DF93E80134E047FD34E1042E000C550B9A
:1030D00057FF03C0519541955109E32E022F242F2C
:1030E000AE010E949F18CE01DF91CF911F910F91E9
:1030F000EF900895BB274A3031F4992322F4BDE2C2
:10310000909581959F4F0C948618BB27FB015527FE
:10311000AA27880F991FAA1FA41710F0A41B839534
:103120005051B9F7A05DAA3308F0A95DA1930097AB
:1031300079F7B111B1931192CB010C94D61AA9E091
:10314000B0E0E5EAF8E10C941B1C6A01F22EB02E07
:10315000102FFBE3AF2EA01608F41BE31F5F012F17
:1031600027E0AE014F5F5F4F0E94FE19BC018981CD
:10317000982F9970913009F43FC09BE2E1FC04C0A4
:103180009E2D9170E0FC3AC05E2D5071E82FE870E2
:1031900083FF46C084E0911101C083E0EF2DE81B5E
:1031A0008F1508F0E0E0D6018E2F20E2552351F173
:1031B000992329F0D6019C93C60101966C019601D2
:1031C0002D5F3F4FE2FE24C08EE4D6018C9391E444
:1031D00011969C93119712968C93D9018E2F90E2A1
:1031E00081111BC0E20FF32FF11D10828EEF9FEFB4
:1031F0002996ECE00C94371C9DE2C6CF90E2C4CF38
:103200002D9381508111FCCFCE0ED11CE0E0D0CFA8
:103210008EE6D6018C9391E6DBCF9D938150E0CF73
:10322000482F447082FF3DC084E0911101C083E0CB
:103230008F1510F4EF2DE81BD6018E2F20E25523B9
:1032400009F1992329F0D6019C93C60101966C01DE
:1032500096012D5F3F4FE2FE1BC089E4D6018C939F
:103260008EE411968C93119786E412968C93D90173
:103270008E2F90E2882309F4B5CF9D938150FACF29
:103280002D9381508111FCCFCE0ED11CE0E0D9CF1F
:1032900089E6D6018C938EE611968C93119786E67B
:1032A000E4CF9B0177FF02C030E020E0A1E0B0E076
:1032B000911102C0B0E0A0E0F9013196AE0FBF1F3E
:1032C0008B2C912CBB2009F461C05401EFEFAE1A96
:1032D000BE0AAA0DBB1DFA161B0619F014F04F2DDD
:1032E0004A1B511188C0E3FC59C07601A42FB0E2FB
:1032F000A1114FC0C40ED11C992309F45BC040E05A
:10330000D6011196F60190836D01552309F448C04A
:10331000012F060F9A81582F507184FF03C09133FB
:1033200009F4015010160CF047C0093008F008E00D
:10333000EEE2FE2E5B01A01AB10885019194819402
:1033400091082F3F320729F4D601FC92F6013196FD
:103350006F016217730794F1021713077CF5DB0105
:10336000A21BB30BAA24A394B12CAC0EBD1EAA0DB4
:10337000BB1D11968C9121503109D601119628154B
:103380003905F4F0F60180836D01DBCFB12CA12C5F
:10339000A0CFF701B1937F01A150AACF9111B0CF77
:1033A000D601942F50E302C05D9391509111FCCF50
:1033B000C40ED11C40E0ACCF01E0BACF80E3DBCF3C
:1033C0006217730731F4963388F4953311F455235B
:1033D00069F0F6018083FD01842F90E2811108C01D
:1033E000A40FB11D1C9290E080E002CF81E3F1CFE9
:1033F00091938150F3CF911183CF8ACF283008F079
:1034000027E03327DA01990F311D87FD916000967F
:103410006105710539F432602E5F3D9330E32A95E2
:10342000E1F708959F3F30F080387105610509F09C
:103430003C5F3C5F3D93913008F08068911DDF93C5
:10344000CF931F930F93FF92EF92192F987F96952A
:10345000E92F96959695E90FFF27EE53FF4F992791
:103460003327EE24FF24A701E70105900894079471
:1034700028F4360FE71EF81E491F511D660F771FEF
:10348000881F991F0694A1F70590079428F4E70E6A
:10349000F81E491F561FC11D770F881F991F661FF1
:1034A0000694A1F70590079428F4F80E491F561FBB
:1034B000C71FD11D880F991F661F771F0694A1F79C
:1034C0000590079420F4490F561FC71FD81F990F66
:1034D000661F771F881F0694A9F7849110951770AF
:1034E00041F0D695C79557954795F794E7941A9567
:1034F000C1F7E8E6F0E06894159015913591659173
:10350000959105907FE27395E118F10A430B560BF4
:10351000C90BD009C0F7E10CF11E431F561FC91F8C
:10352000D01D7EF4703311F48A95E6CFE8940150F3
:1035300030F0080F0AF40027021708F4202F239513
:10354000022F7A3328F079E37D932A95E9F710C0AA
:103550007D932A9589F606949795679537951795E3
:103560001794E118F10A430B560BC90BD00998F0D8
:1035700023957E9173957A3308F070E37C93201342
:10358000B8F77E9170617D9330F0839571E37D9300
:1035900070E32A95E1F71124EF90FF900F911F91AE
:1035A000CF91DF91992787FD90950895DC01FC016B
:1035B000672F71917723E1F7329704C07C916D9367
:1035C00070836291AE17BF07C8F308950E94281B4D
:1035D00008F481E00895E89409C097FB3EF49095C3
:1035E0008095709561957F4F8F4F9F4F9923A9F0DC
:1035F000F92F96E9BB279395F6958795779567956B
:10360000B795F111F8CFFAF4BB0F11F460FF1BC0AE
:103610006F5F7F4F8F4F9F4F16C0882311F096E941
:1036200011C0772321F09EE8872F762F05C06623EF
:1036300071F096E8862F70E060E02AF09A95660FA8
:10364000771F881FDAF7880F9695879597F9089561
:10365000990F0008550FAA0BE0E8FEEF16161706A3
:10366000E807F907C0F012161306E407F50798F00B
:10367000621B730B840B950B39F40A2661F0232B24
:10368000242B252B21F408950A2609F4A140A695A0
:103690008FEF811D811D08950E945F1B0C94D01B2C
:1036A0000E94C21B38F00E94C91B20F0952311F024
:1036B0000C94B91B0C94BF1B11240C94041C0E9485
:1036C000E11B70F3959FC1F3950F50E0551F629F6A
:1036D000F001729FBB27F00DB11D639FAA27F00D6B
:1036E000B11DAA1F649F6627B00DA11D661F829F92
:1036F0002227B00DA11D621F739FB00DA11D621F77
:10370000839FA00D611D221F749F3327A00D611D93
:10371000231F849F600D211D822F762F6A2F112475
:103720009F5750409AF0F1F088234AF0EE0FFF1FA8
:10373000BB1F661F771F881F91505040A9F79E3FFF
:10374000510580F00C94B91B0C94041C5F3FE4F30A
:10375000983ED4F3869577956795B795F795E79555
:103760009F5FC1F7FE2B880F911D9695879597F95E
:10377000089597F99F6780E870E060E008959FEFF3
:1037800080EC089500240A941616170618060906F8
:10379000089500240A9412161306140605060895C7
:1037A000092E0394000C11F4882352F0BB0F40F44F
:1037B000BF2B11F460FF04C06F5F7F4F8F4F9F4F8F
:1037C000089557FD9058440F551F59F05F3F71F011
:1037D0004795880F97FB991F61F09F3F79F0879578
:1037E0000895121613061406551FF2CF4695F1DF01
:1037F00008C0161617061806991FF1CF8695710591
:10380000610508940895E894BB2766277727CB01C4
:1038100097F908950E944C1CA59F900DB49F900DA0
:10382000A49F800D911D112408952F923F924F92D5
:103830005F926F927F928F929F92AF92BF92CF9240
:10384000DF92EF92FF920F931F93CF93DF93CDB749
:10385000DEB7CA1BDB0B0FB6F894DEBF0FBECDBFC1
:1038600009942A88398848885F846E847D848C8492
:103870009B84AA84B984C884DF80EE80FD800C819B
:103880001B81AA81B981CE0FD11D0FB6F894DEBF7E
:103890000FBECDBFED010895A29FB001B39FC0013F
:1038A000A39F700D811D1124911DB29F700D811D6C
:1038B0001124911D08955058BB27AA270E94731CFC
:1038C0000C94D01B0E94C21B38F00E94C91B20F030
:1038D00039F49F3F19F426F40C94BF1B0EF4E095C5
:1038E000E7FB0C94B91BE92F0E94E11B58F3BA17B0
:1038F000620773078407950720F079F4A6F50C9406
:10390000031C0EF4E0950B2EBA2FA02D0B01B9016C
:1039100090010C01CA01A0011124FF27591B99F045
:10392000593F50F4503E68F11A16F040A22F232F51
:10393000342F4427585FF3CF469537952795A795A1
:10394000F0405395C9F77EF41F16BA0B620B730B48
:10395000840BBAF09150A1F0FF0FBB1F661F771FB9
:10396000881FC2F70EC0BA0F621F731F841F48F46E
:10397000879577956795B795F7959E3F08F0B0CFF7
:103980009395880F08F09927EE0F979587950895DE
:103990000E94DC1C0C94D01B0E94C91B58F00E9492
:1039A000C21B40F029F45F3F29F00C94B91B511160
:1039B0000C94041C0C94BF1B0E94E11B68F3992318
:1039C000B1F3552391F3951B550BBB27AA2762171B
:1039D0007307840738F09F5F5F4F220F331F441F28
:1039E000AA1FA9F335D00E2E3AF0E0E832D091505C
:1039F0005040E695001CCAF72BD0FE2F29D0660F49
:103A0000771F881FBB1F261737074807AB07B0E88B
:103A100009F0BB0B802DBF01FF2793585F4F3AF091
:103A20009E3F510578F00C94B91B0C94041C5F3F29
:103A3000E4F3983ED4F3869577956795B795F79517
:103A40009F5FC9F7880F911D9695879597F90895FF
:103A5000E1E0660F771F881FBB1F6217730784079B
:103A6000BA0720F0621B730B840BBA0BEE1F88F7AA
:103A7000E09508950E94411D6894B1110C94041CB6
:103A800008950E94E91B88F09F5798F0B92F992755
:103A9000B751B0F0E1F0660F771F881F991F1AF039
:103AA000BA95C9F714C0B13091F00E94031CB1E07F
:103AB00008950C94031C672F782F8827B85F39F07E
:103AC000B93FCCF3869577956795B395D9F73EF4D2
:103AD00090958095709561957F4F8F4F9F4F08957A
:103AE0000E94281B08F48FEF08950E94281B880B62
:103AF000990B0895A1E21A2EAA1BBB1BFD010DC054
:103B0000AA1FBB1FEE1FFF1FA217B307E407F5078D
:103B100020F0A21BB30BE40BF50B661F771F881F69
:103B2000991F1A9469F760957095809590959B01FF
:103B3000AC01BD01CF010895052E97FB1EF4009442
:103B40000E94B31D57FD07D00E947A1D07FC03D0C9
:103B50004EF40C94B31D50954095309521953F4FF0
:103B60004F4F5F4F089590958095709561957F4F69
:103B70008F4F9F4F0895EE0FFF1F0590F491E02D9A
:103B800009940F931F93CF93DF938230910510F424
:103B900082E090E0E091FD04F091FE0430E020E04E
:103BA000B0E0A0E0309799F42115310509F44AC03E
:103BB000281B390B24303105D8F58A819B8161158A
:103BC000710589F1FB0193838283FE0111C040815D
:103BD00051810281138148175907E0F048175907AE
:103BE00099F4109761F012960C93129713961C9308
:103BF0003296CF01DF91CF911F910F9108950093DD
:103C0000FD041093FE04F4CF2115310551F0421745
:103C1000530738F0A901DB019A01BD01DF01F8016A
:103C2000C1CFEF01F9CF9093FE048093FD04CDCF77
:103C3000FE01E20FF31F81939193225031093983E2
:103C40002883D7CF2091FB043091FC04232B41F42F
:103C500020910601309107013093FC042093FB046E
:103C600020910401309105012115310541F42DB752
:103C70003EB74091080150910901241B350BE0919A
:103C8000FB04F091FC04E217F307A0F42E1B3F0B9A
:103C90002817390778F0AC014E5F5F4F24173507BE
:103CA00048F04E0F5F1F5093FC044093FB04819338
:103CB00091939FCFF0E0E0E09CCFCF93DF9300970C
:103CC000E9F0FC01329713821282A091FD04B091B9
:103CD000FE04ED0130E020E01097A1F42081318155
:103CE000820F931F2091FB043091FC0428173907A1
:103CF00009F061C0F093FC04E093FB04DF91CF91E5
:103D00000895EA01CE17DF07E8F54A815B819E013D
:103D100041155105B1F7E901FB83EA8349915991B6
:103D2000C40FD51FEC17FD0761F4808191810296C5
:103D3000840F951FE90199838883828193819B83F6
:103D40008A83F0E0E0E012968D919C9113970097A2
:103D5000B9F52D913C911197CD010296820F931FD9
:103D60002091FB043091FC042817390739F630976D
:103D700051F51092FE041092FD04B093FC04A09340
:103D8000FB04BCCFD383C28340815181840F951F34
:103D9000C817D90761F44E5F5F4F88819981480F3A
:103DA000591F518340838A819B819383828321158C
:103DB000310509F0B0CFF093FE04E093FD049ECFEF
:103DC000FD01DC01C0CF13821282D7CFB0E0A0E0AA
:103DD000ECEEFEE10C94171C8C01009751F4CB0122
:103DE0000E94C11D8C01C801CDB7DEB7E0E10C9483
:103DF000331CFC01E60FF71F9C0122503109E2172A
:103E0000F30708F49DC0D901CD91DC911197C61735
:103E1000D70798F0C530D10530F3CE010497861747
:103E2000970708F3C61BD70B2297C193D1936D93C5
:103E30007C93CF010E945D1ED6CF5B01AC1ABD0AF8
:103E40004C018C0E9D1EA091FD04B091FE04512CDE
:103E5000412CF12CE12C109731F58091FB049091CD
:103E6000FC048815990509F05CC04616570608F051
:103E700058C08091040190910501009741F48DB7DD
:103E80009EB74091080150910901841B950BE817DA
:103E9000F90708F055C0F093FC04E093FB04F90126
:103EA00071836083A0CF8D919C91119712966C9035
:103EB000129713967C901397A815B90559F56C01C4
:103EC00042E0C40ED11CCA14DB0420F1AC014A1933
:103ED0005B09DA011296159780F062827382518332
:103EE0004083D9016D937C93E114F10471F0D70103
:103EF0001396FC93EE93129776CF22968C0F9D1F0C
:103F0000F90191838083F301EFCFF093FE04E093F6
:103F1000FD0469CF4816590608F42C017D01D30130
:103F20009ACFCB010E94C11D7C01009749F0AE01E0
:103F3000B8010E94B01FC8010E945D1E870153CFC7
:103F400010E000E050CFFB01DC0104C08D91019036
:103F5000801921F441505040C8F7881B990B0895EF
:103F6000FB01DC0102C001900D9241505040D8F796
:103F70000895FB01DC0101900D920020E1F7089506
:103F8000FB01DC014150504048F001900D920020AF
:103F9000C9F701C01D9241505040E0F70895F894D0
:023FA000FFCF51
:103FA200FFFFFFFF0000FF04800000000000C602C8
:103FB200260253021303840262027602000000000A
:103FC200730C26026D0AD40C000000008F0EBE0F87
:103FD200000000002B0D0E0DFE0CD50CDE0C610E48
:103FE2006B0E0D0A00496E697469616C697A696EBB
:103FF200672E2E2E0043617264206661696C6564CF
:104002002C206F72206E6F742070726573656E74EF
:1040120000546172652052656164696E673A2000DE
:10402200506C61636520746865206974656D2074E5
:104032006F2077656967682E004B673A20006E61D2
:104042006E00696E66006F76660020207C2020522A
:1040520061772056616C75653A20002C006572729A
:104062006F72206F70656E696E6720646174616C37
:084072006F672E7478740000E2
:00000001FF
